:020000040800F2
:10000000F8FF012019010A08A7FF0C0895FF0C084A
:10001000A9FF0C08B5FF0C08C1FF0C080000000088
:10002000000000000000000000000000CDFF0C08F0
:10003000CFFF0C080000000095150D08AD150D0848
:1000400001000A084D000D0859000D0861000D0857
:1000500073780D0801000A08316C0D08376C0D0823
:100060003D6C0D08436C0D08496C0D0891340D086A
:10007000A1340D08B1340D08C1340D08D1340D0878
:10008000E1340D08F1340D0801000A0801000A08E6
:10009000C5570D08D5570D08E5570D084F6C0D08CD
:1000A00075000D087B000D088D000D0893000D08EC
:1000B00099000D089F000D08A5000D08F53A0D08E0
:1000C000113B0D082D3B0D08493B0D0801000A08A6
:1000D00001000A08F5000D08FB000D0801010D08DC
:1000E000736C0D0853000D08DDFF0C08D1000D08DE
:1000F000D7000D08EF000D08E9000D0801350D08C7
:1001000001000A0889820D08AD000D0801000A08E7
:1001100007010D080D010D08C5000D08CB000D08E5
:1001200011350D0821350D0831350D0841350D0803
:1001300051350D08000000000000000001000A0811
:10014000F1570D0801580D0811580D08D1FF0C0882
:1001500061350D0871350D0881350D0813010D0845
:1001600001000A0801000A0801000A0801000A0843
:1001700001000A0801000A08000000000000000059
:0801800001000A0801000A0851
:10018800006870470B0A017043700B0C090E8370EE
:10019800C1707047036A0239023B8B4283BFC3892F
:1001A800406B01FB030000207047C2F307238A76E7
:1001B800CB764379032B01BF120C0A75120A4A75D4
:1001C800704700F10B010022D30143EA520310F8F3
:1001D800012B52FA83F38842DAB2F5D11046704700
:1001E80037B50D46044620B9092000232B6003B01B
:1001F80030BD0368002BF7D05A79002AF4D08188E3
:100208005A899142F0D118680DF10702062102F0CF
:100218009BFA9DF8073003F00103034313F0FF0036
:10022800E2D12368E2E72DE9F0470026D0F800A0E4
:100238008E75836907460C46002B00F08D80C36AD3
:1002480001336ED1FA690023551E18462E2615F87B
:10025800011F202900F101000CD0052908BFE52164
:10026800092804D10B2B9EBFE71801337E72E718CB
:10027800013379720B28EAD1E11800204872A17D78
:1002880000295ED1002B53D06FF0080604F1090055
:100298000825361B331810F8011B00294BD02E29CE
:1002A8008BB25BD0A3F14101192903D8117B0D4210
:1002B80000D020330373EDE7B9F1000F05D100F545
:1002C80020539BB2B3F5006F13D340F2B51140EA47
:1002D8000940C2F0EBFCFF28C8F1FF0519D9012D30
:1002E80022D904EB0803020A9A75D87502239844A8
:1002F800002002368146DAF81030985B0028DBD1FE
:100308004546B9F1000F18BF002525440023AB75F9
:1003180098E758B1002DF4D004EB08039875012331
:10032800E5E7B146B046E6E70025EAE70546E8E72F
:100338003F23A3750123234400219975137B03B937
:100348006372D37A237202F11C00FFF719FF206051
:10035800D38AE380138BA380BDE8F08710250B4672
:10036800A8E738B50568044615F8010B20B140F236
:10037800B511C2F0BBFC08B1256038BD4FF0FF30A5
:10038800FBE737B5C37904461BB90025284603B0F7
:1003980030BD00F13C01826B00680191012302F03D
:1003A800BEF9054680B9E36AE071A06B626AC31AB8
:1003B8009342EAD2A3790199022BE6D102440123A0
:1003C800206802F0ACF9E1E70125DFE738B5836B77
:1003D8008B4205460C4610D0FFF7D3FF60B9224682
:1003E8002868012305F13C0102F08AF900281CBFA6
:1003F8004FF0FF340120AC6338BD0020FCE700005B
:1004080038B50023C3714FF0FF3383630546FFF708
:10041800DDFF0446F8B9B5F83A224AF655239A4260
:100428001BD195F83C30EB2B03D01833DBB2012BF2
:1004380015D80C49032205F17200C5F0CBFC40B178
:100448000949052205F18E00C5F0C4FC002818BF33
:100458000224204638BD0424FBE70324F9E70224DC
:10046800F7E700BFE4860E08E8860E08F0B5437982
:1004780087B0044601F0FE058BB100680DF1070254
:10048800062102F061F99DF80730DE0707D41DB197
:1004980013F0040500D00A25284607B0F0BD002354
:1004A800637120680DF10702052102F04DF99DF8EE
:1004B8000730D80700F1E4800DB15907EBD40021CB
:1004C8002046FFF79DFF022803D0012823D825796D
:1004D8006DB302AA04F2022304F24221174613F86C
:1004E800040C10B11846FFF74BFE1033994242F83E
:1004F800040BF4D1267906B1013E57F8265075B1A0
:1005080029462046FFF77CFF237953B901280ED9E5
:100518000136032EF1D9042807D10125BCE70320B1
:10052800F2E70428F9D0012801D90D25B4E7B4F879
:100538004730B3F5007FF8D1B4F8521021B904F16F
:100548006000FFF71DFE014694F84C3061625A1EA8
:10055800012AA371E9D894F84960E681002EE4D015
:10056800721E3242E1D1B4F84D70A7813A07DCD14E
:10057800B4F84F0018B904F15C00FFF701FEB4F8B5
:100588004A20002AD1D001FB03FE02EB171CF444D9
:100598006045CAD3A0EB0C00B042B0FBF6F3C4D35D
:1005A8003C488342C1D84FF6F57083426AD9032686
:1005B80002332A440CEB0500032E2362A562E26293
:1005C80060634DD1B4F866203A43AED104F16800B7
:1005D800FFF7D6FD9B00206303F2FF13B1EB532F07
:1005E800A3D34FF0FF33C4E90533032E4FF0800344
:1005F80023722BD1B4F86C30012B27D1691C20460B
:10060800FFF7E4FE10BBB4F83A2220724AF65523ED
:100618009A421BD104F13C00FFF7B2FD1E4B9842F1
:1006280014D104F50870FFF7ABFD03F1FF5303F590
:1006380000532033984209D104F50970FFF7A0FD53
:10064800A06104F50A70FFF79BFD6061134A6671AB
:10065800138801339BB2002513806381E5611BE792
:10066800002F3FF462AF7244022E22634FEA430226
:100678001BBFD21803F00103134603EB5203ABE789
:10068800032509E740F6F576B3428CBF022601261A
:100698008EE700BFF5FFFF0F52526141F8030020BB
:1006A80001292DE9F04706460C46174673D9036A17
:1006B8008B4270D94379022B3FD0032B50D0012BAA
:1006C80069D101EB5108C16A01EB5821FFF77EFEA1
:1006D800054638BB06F13C0908F1010AC8F30808C9
:1006E80014F001041FBF19F8083003F00F023B0192
:1006F80003F0F00314BF1343FBB209F80830F16AA2
:100708000123F37101EB5A213046FFF75FFE0546DE
:1007180040B9CAF3080A44B1C7F3071709F80A70C1
:100728000123F3712846BDE8F08719F80A30C7F3AA
:10073800032723F00F031F43F0E7C16A01EB1421DD
:10074800FFF744FE05460028ECD1640006F13C039F
:1007580004F4FF7418191F55C7F307274770DFE71C
:10076800C16A01EBD411FFF731FE05460028D9D143
:10077800A40006F13C0304F4FE741C442046FFF771
:10078800FFFC27F0704700F0704047EA0001204660
:10079800FFF7F8FCC4E70225C4E7F7B50546019161
:1007A800FFF7EFFD044600BB01992846FFF7F2FC6E
:1007B80005F13C070646A8634FF400722146384607
:1007C800C5F0E0FAEB899C4205D3E889001B18BF05
:1007D800012003B0F0BD286801233219394601F021
:1007E8009EFF0028F1D10134ECE70120F1E7F8B5CC
:1007F8000446FFF7C6FD0546002842D16379032B5E
:1008080037D1277A012F34D104F13C0601464FF441
:1008180000723046C5F0B6FA552384F83A32AA2356
:1008280084F83B3252234122722184F83C3084F808
:100838003D30612384F83E3084F8233284F83F2029
:1008480084F8201284F8211284F82222A16904F580
:100858000970FFF797FC616904F50A70FFF792FCCD
:10086800A26A20680132A2633B46314601F057FF75
:10087800257200222068114601F066FF003818BF73
:100888000120F8BD03284B8B04BF8A8A43EA024340
:10089800184670470129F8B506460C464ED9036A32
:1008A80099424BD24379022B29D0032B34D0012B08
:1008B80044D101EB5105C16A01EB5521FFF786FDD3
:1008C80010B14FF0FF30F8BD6F1CF16AC5F3080591
:1008D800354401EB5721304695F83C50FFF776FD3B
:1008E8000028EED1C7F308073E44E30796F83C001A
:1008F80045EA00204CBF0009C0F30B00E3E7C16ADA
:1009080001EB1421FFF762FD0028DAD1640004F43A
:10091800FF742644B08FD6E7C16A01EBD411FFF704
:1009280055FD0028CDD1A40006F13C0004F4FE7466
:100938002044FFF725FC20F07040C4E70120C2E7FF
:1009480037B50C46012C054611462BD9036A9C4243
:1009580028D222B14FF0FF32FFF7A2FE40B921465C
:1009680028460194FFF796FF0199044610B9002024
:1009780003B030BD012815D0431C15D000222846ED
:10098800FFF78EFE0028F3D12A6AAB69911E8B42CD
:1009980005D20133AB612B7A43F001032B729442E9
:1009A800DDD3E4E70220E3E70120E1E7F8B50546F7
:1009B8000F4649B94669B6B1036A9E4228BF012667
:1009C800AB6993B9002405E0FFF764FF01280446EA
:1009D80002D801242046F8BD421C50D02B6A984208
:1009E800F8D33E46ECE70126EAE7B74215D12B6A71
:1009F8007C1C9C4228BF022421462846FFF74AFF58
:100A08000128E6D0431C3AD0D8B16B69012B04D930
:100A18002A6A934234BF1E463E4634462B6A013446
:100A28009C4202D3012ECDD9022421462846FFF745
:100A380031FF40B10128CCD0013020D0A642EDD101
:100A4800C0E7002CE9D04FF0FF3221462846FFF7D7
:100A580027FE90B957B92A6AAB696C61023A93428A
:100A680010D92B7A43F001032B72B3E7224639469B
:100A78002846FFF715FE0028EDD00128A9D14FF030
:100A8800FF34A7E7013BAB61EBE72DE9F8430769C2
:100A980006682037B7F5001F24BF002383618369E8
:100AA8000446894673B1C7F30808B8F1000F39D175
:100AB80041690133836139B9B389B3EB571F31D821
:100AC8000023A36104200BE0F389013B13EA5723B9
:100AD80028D13046FFF7DEFE0128054602D802205D
:100AE800BDE8F883421C01D10120F9E7336A83424B
:100AF80012D8B9F1000FE3D061692068FFF756FFFB
:100B08000546A8B10128EAD0431CEDD0014630467D
:100B1800FFF743FE0028E7D1656129463046FFF715
:100B280039FBA0613C3646442761E6610020D7E7DF
:100B38000720D5E72DE9F047FF27D0F800900646B3
:100B480088463D4604244FF6FF7AB16911B9002C56
:100B580064D054E04846FFF739FC044600284ED1DB
:100B6800F0690178002961D0C37AE52903F03F03D1
:100B7800B37149D02E2947D023F02002A2F1080CE6
:100B8800DCF1000242EB0C0242453DD10F2B40D173
:100B98004C0637D53369477BF36201F0BF01437BCD
:100BA800BB4231D1428B7ABB0378D9F81040DFF8C9
:100BB80080E023F040030D25013B6B4301251EF81F
:100BC80001CB30F80CC00DB3FF2B1DD824F813C08F
:100BD8006546013301320D2AF1D10278520605D556
:100BE80025B1FF2B10D8002224F813204D1EEDB29A
:100BF80000213046FFF749FF04460028A5D000230E
:100C0800B3610CE08D42CAD0FF25F1E7D445E1D0AD
:100C1800FAE73DB9FFF7D5FAB84203D100242046D8
:100C2800BDE8F0874FF0FF33F362F8E70424E6E706
:100C3800B2870E08B1F5001FF8B506460C4601D379
:100C48000220F8BDCA06FBD1826805680161CAB9ED
:100C58006B79022B01D92B6B9BB9AB89B3EB541F72
:100C6800EED92B6BB361B3697261002BE8D003EB4B
:100C780054233C35C4F308042C44B361F4610020C8
:100C8800DFE71A46EF897F02BC42114604D22846A4
:100C9800FFF780FAB061E6E73068FFF7FBFD431C19
:100CA800024606D00128CBD92B6A8342C8D9E41B57
:100CB800EAE70120C5E7F8B50E46002107680446B3
:100CC800FFF7B8FFA8B90546A1693846FFF77EFBCC
:100CD80078B9E3691B78E52B00D01BB90135B5421B
:100CE80001D1F8BD054601212046FFF7CEFE0028B8
:100CF800EAD0042808BF0720F3E7C16A4B1C2DE996
:100D0800F04105680669044618D1E5274FF0010847
:100D1800A1692846FFF75AFB60B9E3691F7085F897
:100D280007802369B3420DD201462046FFF7ADFE86
:100D38000028EDD0042808BF022003E0FFF77AFF5F
:100D48000028E2D0BDE8F0812DE9F04F002185B000
:100D5800D0F800B00446FFF76DFF0546002840F0C4
:100D68008D804FF0FF3A4FF0FF08C4F82CA0C14621
:100D7800A1695846FFF72AFB054600287ED1E66997
:100D88003778002F7ED0F27AE52F02F03F03A37167
:100D980003D0100704D50F2B04D0C4F82CA050E0C2
:100DA8000F2B56D194F82B30590640D47A0646D5E5
:100DB800236996F80D80E36207F0BF07737B43450C
:100DC8003FD1738B002B3CD13578DBF81030009382
:100DD80005F03F05013D0D23DFF8B0905D4301228A
:100DE80019F8013BF35A7AB3FF2D2AD81846039312
:100DF800C1F090FF009B0290691C33F81500019127
:100E0800C1F088FF029A82421BD1039B01991A46BE
:100E18000D461D4B9945E3D133785B0604D51AB1CD
:100E2800009B33F8153063B9013F5FFA87F9002159
:100E38002046FFF72AFE0546002899D01EE0B9454E
:100E4800BCD04FF0FF09F2E74FF6FF718B42E0D0BC
:100E5800F7E7B9F1000F04D13046FFF7B2F9404582
:100E68000CD094F82B5015F0010596D10B2204F103
:100E780020013046C4F0AEFF00288ED1284605B0C8
:100E8800BDE8F08F0425F9E7BF870E08B2870E0882
:100E98002DE9F04F90F82BB01BF0A00489B005465F
:100EA80040F0E58007683A6932F81430002B6ED1BB
:100EB80005F1200696E807000DF1140A1BF0010F52
:100EC8008AE8070000F0DA80402385F82B304FF0DD
:100ED80001089AE80700B4463B69ACE803002CF81F
:100EE800022BB8F1050F4FEA12428CF8002062D9A4
:100EF800981E424630F8021F00294AD10DF1130C02
:100F0800072102F00F0E0EF13000392888BF0EF1CC
:100F180037000F2A0CF8010901F1FF314FEA1210CE
:100F28004BD801F120030DEB03027E2002F8140CCC
:100F380030460022914206D010F801CBBCF1200FB8
:100F480002F1010E3BD105F11F0C07299CBF01F1ED
:100F580020030DEB030002F1010296BF10F8140CF8
:100F680020200131072A0CF80200EED92846FFF7A5
:100F7800EBFE814600287DD108F10108B8F1640F25
:100F8800A7D14FF00709484609B0BDE8F08F0134F2
:100F98008AE74FF0100C01F0010E0EEB4202D3036A
:100FA80044BF82F4883282F02102BCF1010C4FEA7E
:100FB8005101F0D19EE74246A0E70246A1E77246FA
:100FC800B8E729692846A1EB4411FFF733FE8146AB
:100FD8000028D8D13046FFF7F4F84FF6FF78019093
:100FE800A9693846FFF7F2F981460028CBD1EB69A9
:100FF800019AD7F810E05A73E1B24FF00F024FF0A0
:101008000D0CDA72DFF8D8A018734A1E0CFB02F236
:101018009876D87684461AF8019B404518BF3EF862
:10102800120003F8090003EB090B0CF1010C18BFBF
:1010380001324FEA1029002808BF4046BCF10D0FC5
:101048008BF80190E7D1404502D03EF812200AB94A
:1010580041F0400119700123FB7100212846FFF778
:1010680014FD814600288ED1013CB9D11AE04FF019
:10107800060988E7042886D185F82BB01BF0020FF3
:101088001BBF0C340D210124B4FBF1F418BF01344B
:1010980021462846FFF70FFE814600287FF473AFEC
:1010A800013C8ED1A9693846FFF790F9814600289E
:1010B8007FF469AF01462022E869C4F063FE03CEDD
:1010C800EB6918605960B278318819819A7295F87D
:1010D8002B30EA6903F0180313730123FB7152E7FD
:1010E800B2870E082DE9F04F0A78036887B02F2AD7
:1010F80006468B46019301D05C2A0AD159460A78E4
:101108002F2A8B4601F10101F9D05C2AF7D0002281
:1011180001E0019BDA69B2609BF800201F2A00F207
:10112800218180230021304686F82B3007B0BDE8A6
:10113800F04FFFF77FBDFE2D00F23D8129F8152005
:10114800013515E101330593059B19782F29F9D04D
:101158005C29F7D0202A34BF04240024012DDDF8AF
:1011680014B02DD1B9F800202E2A2FD1002229F849
:10117800152006F1200195428CBF2E202020013237
:101188000B2A01F8010BF6D144F0200486F82B4015
:101198003046FFF7D9FD96F82B20002800F0D280C2
:1011A800042840F00981950602F0040140F1C68048
:1011B800002900F0D780802386F82B300020FBE040
:1011C800022D03D1B9F802202E2ACBD0A9F10201B1
:1011D80095BB002229F81520002D00F0EC8039F885
:1011E80012002028114602F10102F8D009B92E2870
:1011F80001D144F00304A9F1020030F815202E2A89
:1012080001D0013DF9D14FF020324FF00008726251
:101218003262C6F827204FF0080A474639F811000D
:101228004A1C00B3202803D02E280DD1AA420FD083
:1012380044F003041146F1E731F81520202A01D0C3
:101248002E2AC6D1013DC3E7D04505D2AA4239D1DD
:10125800BAF10B0F2ED102E0BAF10B0F25D144F0F1
:1012680003044FF00B0A96F82020E52A04BF052254
:1012780086F82020BAF1080F04BFBF00FFB207F0BC
:101288000C020C2A03D007F00302032A01D144F010
:101298000204A2073FF57AAFFB0748BF44F01004E9
:1012A8007F0748BF44F0080470E7AA4202D044F020
:1012B8000304D8D8BF00FFB22A464FF00B0A4FF0FC
:1012C8000808B7E77F2812D944F0020340F2B511A5
:1012D80003920293C1F0EAFC10F0800FDDE90232BC
:1012E80010D03F4900F07F00085C1C4630B13D4BF0
:1012F80013F8011B002964D08142F9D144F003049A
:101308005F2011E0FF28F0D90AF1FF31884503D3A7
:1013180044F00304D0468DE706EB0801040A81F87F
:10132800204008F101081C4606EB080108F10108F5
:1013380081F820007EE747F00207F5E7002908BF9B
:10134800052039E0520737D4B279D30637D5019B47
:101358003169587903F13C02C1F308011144FFF7E0
:1013680091FAB0603368CDF814B0D3F81090002526
:1013780005A8FEF7F6FF411C1DD0B0F5803F28BF39
:10138800030C82B224BF29F8153001351F2A7FF6D5
:10139800E1AE2F2A3FF4D8AE5C2A3FF4D5AE7F2ABF
:1013A8003FF6C9AE1049104611F8013B002B3FF437
:1013B800C2AE8342F8D1062007B0BDE8F08F052001
:1013C800FAE7A0F1410189B21929B4D9A0F1610164
:1013D80089B219299EBF203847F0010780B2A3E7D8
:1013E80032870E08F7860E08EE860E080021417136
:1013F800FFF73CB82DE9F0410546ADF50C7D904668
:101408001E460C46002900F0BE8003F03F0739460F
:10141800FFF72CF8002840F0AE800CAB2B6141465A
:1014280068460095FFF75EFE024620B99DF92B300D
:10143800002BB8BF062216F01C0F69D0002A3AD03C
:10144800042A35D16846FFF723FD024680BB47F0E2
:101458000807DDF81C8068794146FFF713FA06464D
:10146800D6F04AFF014608F10E00FEF78BFE079BF7
:101478002022DA72079900222846FEF796FE079B7B
:1014880000221A775A779A77DA770123EB71DEB15F
:101498000098D5F838803146FFF752FA024638B935
:1014A80041462846FEF792FF013E6E61024658B15A
:1014B8000023236027E09DF8063013F0110F31D187
:1014C80073075AD43007C4D4AB6B0799236261629F
:1014D8003807687948BF47F04007FFF7D3F9A0609D
:1014E800034601F11C00FEF74BFE6A89A280B9068B
:1014F8004FF000020646E060256027746274E261DE
:10150800626111D4002210460DF50C7DBDE8F08112
:10151800002ACDD19DF80630D90630D4B207D3D5EC
:10152800DE07D1D50722C3E70028EBD0EF89606139
:101538007F02B74210D30022A361002AB8D1C6F3B4
:1015480008010029DED019462846FEF723FEC0B15F
:1015580000EB5620E061D6E719462068FFF79AF9B4
:1015680001280346A6EB070603D9421CE1D1012254
:10157800E2E70222E0E702469AE7082298E7042217
:1015880096E7022294E70922BDE72DE9F04F994634
:1015980085B000238846C9F8003003A904461746D9
:1015A800FEF71EFE0646F8B9667CEEB994F810A060
:1015B8001AF0010300937CD0E2686369D21A97425B
:1015C80028BF174687B16269C2F30803002B57D1B9
:1015D800039BDB89013B13EA522A15D142B9A06863
:1015E80001280AD802266674304605B0BDE8F08F97
:1015F800A1692068FFF74EF9F2E7431C03D10123E4
:10160800009E6374F0E7A061DDF80CB0A16958464C
:10161800FEF7C0FD0028E5D0B7F5007F0AEB000211
:101628002DD3BBF80E1001920AEB572088424FEADF
:10163800572588BFA1EB0A05DBF800002B46414679
:1016480001F05EF80028DAD10399CB795BB1886B99
:10165800019A801AA84206D24FF400723C3108EB76
:101668004020C4F04BFB6D02D9F800302B44C9F878
:10167800003063692B447F1BA8446361A2E7E261E1
:101688006569E1690398C5F30805C5F50075BD42AC
:1016980028BF3D46FEF79AFE0028B0D1039963693A
:1016A8003C31C3F308032A4619444046C4F026FBDC
:1016B800DAE7072698E72DE9F04F9A4685B0002328
:1016C8008946CAF8003003A904461746FEF788FD84
:1016D800064620BB667C16BB237C9A0740F1A9808E
:1016E8006369FB4200D3DF43AFB16369C3F3080208
:1016F800002A40F08180039AB2F80E8008F1FF3882
:1017080018EA53281ED173B9A06870B90146206839
:10171800FFF74CF948B9237C43F040032374304663
:1017280005B0BDE8F08FA169F1E7012802D10226D2
:101738006674F4E7431C01D10126F9E7A368A061A8
:1017480003B9A0600398E369826B9A4203D1FEF75C
:1017580018FE0028F0D1039DA1692846FEF71AFD5E
:101768000028E4D0B7F5007F08EB000B36D3E989F1
:1017780008EB572088424FEA5723286888BFA1EB17
:1017880008035A464946019300F0C9FF0546002858
:10179800D2D1DDF80C80019BD8F83810A1EB0B01F1
:1017A80099420AD24FF4007209EB412108F13C003A
:1017B800C4F0A4FA019B88F807505D02DAF80030FB
:1017C80062692B44CAF800307F1BE368A9441544BA
:1017D8006561AB422CBFE360E56085E76169E3685A
:1017E800994207D32846FEF7CCFD0028A4D1039BD5
:1017F800C3F838B0C4F81CB06569E1690398C5F34B
:101808000805C5F50075BD4228BF3D46FEF7DEFD5B
:10181800002891D1039863693C30C3F308032A4632
:1018280018444946C4F06AFA039B4FF00102DA7182
:10183800C4E7072673E7F7B501A90546FEF7D0FC0C
:10184800044660BB2C7C14F0400428D0D6F054FD2C
:10185800296A07460198FEF7B9FD0446F8B96E6A89
:10186800F37A43F02003F372AA6828683146FEF73A
:101878009CFCE96806F11C00FEF784FC394606F179
:101888001600FEF77FFC0198B4740123F474C37149
:10189800FEF7ADFF2B7C23F0400304462B74204653
:1018A80003B0F0BD13B50446FFF7C5FF28B901A979
:1018B8002046FEF795FC00B9206002B010BD70B557
:1018C8000E46ADF50C7D00210546FEF7CFFD04461A
:1018D80070B90CAB2B61314668460095FFF702FCE6
:1018E800044698B99DF92B30002B05DA029BEB6171
:1018F80020460DF50C7D70BD9DF80630DB0609D538
:1019080007996879FEF7BEFFE861F1E7042808BF88
:101918000524EDE70524EBE72DE9F0470E46002105
:10192800ADF5527D317081469046FEF79FFD054624
:1019380008BB52ABC9F81030D9F81C30CDF800906C
:1019480002934446DDF808A0BAF1000F1AD14445C5
:1019580002D1013C2F2333553346A11B1A5D03F8EE
:10196800012B5A189045F9D8A8EB04030134A04577
:1019780038BF01231E440023284633700DF5527DDD
:10198800BDE8F08720216846FFF754F9002849D1BF
:1019980006994846FEF71AFD0746002840D10799E0
:1019A80099F80500FEF76EFF394602906846FFF782
:1019B80041F9B8BB00216846FFF7BCF80746A8BB49
:1019C800079999F80500FEF75DFF50450AD039469A
:1019D8006846FFF75AF80028ECD00546042D08BFE2
:1019E8000225C8E70CA96846FEF71DFC0DF1460361
:1019F800194613F8012BBA460137002AF9D1A74234
:101A080012D8A4EB0A0052463044C4F077F9631E9A
:101A1800A3EB0A036FEA0A022F21F154144491E759
:101A28000546A8E70546A6E71125A4E70546D5E734
:101A38002DE9F3410D4601A90446FEF7D1FB064600
:101A4800002850D1667C002E4DD1E368AB4204D209
:101A5800227C12F0020F08BF1D46002263696261F2
:101A68009DB90025E2686369934282BF227CE360E6
:101A780042F04002C3F3080388BF2274002B32D01F
:101A8800E369AB4218BFE5612DE0019AD7897F026F
:101A9800FBB1013B6A1EB3FBF7F1B2FBF7F28A42D6
:101AA80017D37A421340A1696361ED1A0029D8D08F
:101AB800BD42636922D863692B446361C5F3080397
:101AC800002BCED00198FEF765FB50B100EB5525F1
:101AD800C8E7A16881B92068FEF768FF01280146B8
:101AE80005D102266674304602B0BDE8F081481C74
:101AF80001D10126F6E7A160A161D7E73B44636104
:101B0800237C20689A07A5EB070805D5FEF74EFF4A
:101B1800054620B90146CEE7FEF7BCFE05466B1C1C
:101B2800E7D0012DDDD9019B1B6AAB42D9D9A5614C
:101B380029464546BCE770B50546ADF5007D164615
:101B48000C4641B30021FEF791FC78B92560314677
:101B5800C5F810D02046FFF7C5FAF0B994F92B3034
:101B6800002B0BDBA379DB0603D4052000232360BD
:101B78000EE06879E169FEF785FEA0606B89A380B5
:101B880000212046FFF756F80428EED00028EDD1B2
:101B98000DF5007D70BD0920FAE70428E5D0E5E7DA
:101BA80013B501A90446FEF71BFB00B9206002B07B
:101BB80010BD70B5ADF5027D0D4601A90446FEF7CE
:101BC8000FFB20B935B901462046FFF733F80DF56C
:101BD800027D70BD019B02AA01461A612046FEF7EC
:101BE800A9FF10F0FB06F2D129462046FEF71BFBA1
:101BF80031462046FEF749FF042808BF0020E6E7E3
:101C0800F0B50F46ADF50D7D002106461546FEF7E9
:101C18002DFC0096044680B90CAB33613946684602
:101C2800FFF760FA044640B99DF92B30002B08DB1A
:101C38001DB129466846FEF7F6FA20460DF50D7DDA
:101C4800F0BD0624F9E72DE9F84F8846002104463F
:101C5800FEF70CFC054640B9D4F820A0A369AAF108
:101C68000202934204D8C8F800302846BDE8F88F2D
:101C78006379012B17D10227064639462046FEF71D
:101C880009FE431C34D0012834D000B90136236A38
:101C98000137BB42F1D8C8F80060237AA66143F047
:101CA80001032372E1E7E16A0746064604F13C09AD
:101CB80037B9204601F1010BFEF788FBE0B9594618
:101CC8006379022B09EB07000AD139F8073003B909
:101CD80001360237BAF1010AC7F30807E8D1DAE793
:101CE800FEF74EFA30F0704308BF01360437F1E7CB
:101CF8000125D0E70225CEE70546CCE7F0B50E462C
:101D0800ADF5197D02210546FEF7B0FB044698B9EA
:101D180018AB2B61314668460095FFF7E3F9044696
:101D280050B99DF82B3098063CD419063AD49DF842
:101D38000670FA0704D5072420460DF5197DF0BD75
:101D480007996879FEF79EFDFB0606460BD46846A0
:101D5800FEF7D3FF04460028EED1D6B92846FEF791
:101D680046FD0446E8E7EB698342E4D00E9021463D
:101D78000CA80C95FEF75EFF04460028DCD101464E
:101D88000CA8FEF7D7FE04460028D4D00428D3D1E7
:101D9800DDE7024631460098FEF7D2FD04460028EA
:101DA800CAD1DBE70624C7E72DE9F0410E46ADF5B9
:101DB8000C7D02210546FEF759FB044600286AD12E
:101DC8000CAB2B61314668460095FFF78BF904464A
:101DD80000286FD004285ED19DF82B1011F0200147
:101DE8006AD12846FEF7E2FD0646002858D00128A9
:101DF80058D0431C5C425C41D6F07EFA0746002C62
:101E080052D131462846FEF7C8FC044600284BD17B
:101E18004FF02033EB632B64C5F843302E2385F84D
:101E28003C30102385F84730394605F1520005F15A
:101E38003C04FEF7A7F9324621462846FEF7B5F9D5
:101E480005F15C031A4651F8040B42F8040B994259
:101E5800F9D12E23029A85F85D3028464FF0010803
:101E6800FEF7A3F985F807806846FFF711F80446DE
:101E7800D0B9079839461630FEF784F932460799E3
:101E88002846FEF792F9079B1022DA7285F8078038
:101E9800FEF7ADFC044620460DF50C7DBDE8F0814B
:101EA8000724A9E70224A7E7002231462846FEF7BF
:101EB80047FDF0E70824EEE70624ECE7F0B50D4609
:101EC800ADF5217D022104461746FEF7CFFA00281A
:101ED80079D120AB2361294608A80894FFF702F9B5
:101EE800002870D19DF84B3013F0A00F6ED10F9BD6
:101EF8006D4603F12006186859682A4603C208335C
:101F0800B3421546F7D108AE0FCE14AD0FC50FCEAC
:101F18000FC596E80F0085E80F00394614A8FFF7AB
:101F2800E1F848B9169A0A9B9A4203D1189A0C9B71
:101F38009A4203D0082046E0042844D114A8FEF7AA
:101F4800A7FF00283FD11B990DF10D0301F10D02E8
:101F58000DF11D0053F8045B42F8045B8342F9D18C
:101F6800188810809B7893709DF80B30DA0658BF5C
:101F780043F020030125CB72E571CB7ADB061BD534
:101F88000A9A169B9A4217D06079FEF77BFC0146A5
:101F98002046FEF7FFF80146D0B12046FEF716FAB4
:101FA80088B994F85D302E2B06D1169A04F15C019D
:101FB8002046FEF7FAF8E57108A8FEF79EFE10B96C
:101FC8002046FEF714FC0DF5217DF0BD0620FAE74A
:101FD8000220F8E7F0B595B0064601910221FEF718
:101FE80045FA0446002833D102AF4FF0203302935C
:101FF80005467B60C7F80730019B1B781F2B20D84C
:102008009DF80830E52B22D01DB16B1EFA5C202A02
:1020180030D0002108A808960A91FEF70BFE044666
:10202800B0B9012108A8FEF785FD70BB0F9A1DB352
:102038003B4603CB1060516019889B7893721181DD
:102048001CE001A8FEF78DF9B0F5803F03D3062404
:10205800204615B0F0BDC0F05DFE40F2B511C0F0ED
:1020680025FE0028F3D01E4A12F8013B93B398428C
:10207800FAD1ECE71D46C7E7E52313700123F37196
:102088003046FEF7B4FB0446E2E70428FBD1002DF6
:10209800DED0012108A8FEF70EFE04460028D7D19D
:1020A800202201460F98C3F06DFE0F9B0822DA72BA
:1020B8000F9ABDE7092DCAD805F150036B44020AEF
:1020C80003F8482C013505F150036B44013503F83A
:1020D800480C91E7FF28EDD80A2DF4D9B7E700BFDF
:1020E800BF870E082DE9F04FD0F800808BB01C4652
:1020F80000234371029103790193154605210DF1DF
:102108001F02404600F020FB9DF81F30DA0700F15F
:102118007D825E0700F17C8208AA0321404600F018
:1021280013FB30B9089A531EB3F5004F01D21A4277
:1021380001D0012308935DB15A4BA5F500729A426C
:1021480003D913200BB0BDE8F08F6B1E2B42F8D1DA
:10215800002C00F05F82149BB3F5007FC0F05A8218
:10216800019B002B62D0012300222146404600F04B
:10217800C7FA08B10120E5E7B4F8FE214AF655236D
:102188009A4201D00E20DDE7019B04EB031202F511
:10219800D77392F8B221002AF4D003F10800FDF7B2
:1021A800EFFF074603F10C00FDF7EAFF0990DDF8A1
:1021B80024B0BBF1150FE5D9B5F5813FC1D2029B1B
:1021C80013F0020305934FEA5522029B41D003F016
:1021D8000703022B00F02C82029BD80740F12882CB
:1021E800002A3FD130484FEA1B35012630F8023B20
:1021F8000BB1AB4234D940F6F573BBFBF6F59D4203
:102208009BBF05EB4505013502356D088CBF6D0098
:1022180003354FF0200305F2FF1504938CBF4FF0F0
:1022280002094FF001096D0A012324E209AA0121DC
:10223800404600F089FA00289CD1029B13F0080F51
:10224800099B14BF00273F27BB429BD3DB1B099385
:10225800ADE7D907C4D474E75200F0E11346F5E1BD
:102268007600C3E71646C6E7B9F1020F1ED10399F7
:102278004FF6F570814208D9002A40F0D5817600E2
:10228800402E00F230823246AAE7039940F6F570F4
:10229800814213D8002A7FF475AF7200802A9FD933
:1022A80070E700BF00FEFF00D2870E08039940F6D2
:1022B800F57291423FF666AF4FF001094FF4007294
:1022C800002120460593C3F05DFDD34A059B1168A4
:1022D800A373C3F30723B9F1030F2160E3735168B4
:1022E80061604FF0010323741189927AA2720CBFC6
:1022F80000234FF4007302221B0ABBF5803F2181A3
:1023080022736673A37480F01D8184F813B0CBF335
:10231800072B84F814B0F82363753F2323764FF016
:10232800000BFF2384F819B0A37684F81BB0394654
:1023380004F11C00FDF726FFB9F1030F40F00881F6
:10234800D5F0DAFF014604F14300FDF71BFF2946EB
:1023580004F12400FDF716FF022384F82C30012332
:1023680084F83030062384F83230802384F84030F3
:10237800292384F84230A94B84F82DB084F82EB074
:1023880084F82FB084F831B084F833B004F14702F0
:1023980003F1100153F8040B42F8040B8B42F9D1F6
:1023A80019889B7893704FF05503118084F8FE319B
:1023B8006FF0550384F8FF313A4601232146404621
:1023C80000F0ADF9834600287FF4D4AEB9F1030FCD
:1023D8003ED10123BA1D2146404600F0A0F94FF432
:1023E800007259462046C3F0CDFC52232370637017
:1023F8006123A37084F8E731039B41227221E270C4
:1024080084F8E41184F8E51184F8E621591E04F5EE
:10241800F470FDF7B7FE022384F8EC314FF0550352
:1024280084F8FE316FF0550384F8FF31FA1D01235B
:10243800214684F8EDB184F8EEB184F8EFB1404656
:1024480000F06DF90123FA182146404600F067F9BB
:10245800149B23F4FF7222F0010200212046C3F0EE
:1024680091FCB9F1030F40F09080F8232370FF230B
:102478006370A370E37023716371A371E3712372B6
:102488006372A3720F23E372149B5B0A0393039B8B
:10249800AB4228BF2B462146524640469B4600F099
:1024A8003EF9014600287FF465AE4FF400722046DD
:1024B800C3F068FCB5EB0B05DA44E8D1049BB9F12D
:1024C800030F18BF1E46039DB54228BF35462B464D
:1024D80052462146404600F022F900287FF44AAED1
:1024E800761BAA44EFD1B9F1030F58D0099BB3F575
:1024F800803F56D2B9F1020F0CBF04250125019B7C
:10250800002B50D0002201232146404600F0F8F865
:10251800024600287FF42EAE019B04EB031383F8D8
:10252800B25101232146404600F0F9F800287FF413
:1025380021AE00221146404600F006F9003818BFC7
:102548000120FFE5594604F12000FDF71BFEE2E6F5
:10255800D5F0D2FE014604F12700FDF713FEC5F3BE
:102568000723E375802384F82430292384F8263050
:102578002B4BA57504F12B0203F1100153F8040B42
:1025880042F8040B8B42F9D10AE7B9F1010F25494A
:10259800204618BF6FF00701FDF7F4FD74E70C251E
:1025A800ADE70625ABE7029B1B07C2D401994FF4A0
:1025B80000722046C3F0E6FB099A84F8C2515523FD
:1025C80084F8FE31AA2384F8FF313A4443F6C16304
:1025D800B2FBF3F2FE2384F8C331930843F03F03C0
:1025E800012684F8C43184F8C521394604F5E3701E
:1025F80084F8BF6184F8C061FDF7C4FD099904F54A
:10260800E570FDF7BFFD019A33468BE7032099E596
:102618000A2097E5112095E5FE860E080A870E0820
:102628001E870E08F8FFFF00059B002B3FF4AAAD9C
:10263800002A7FF413AE30484FEA5B45012230F898
:10264800023B1BB1AB427FF607AE0023BBFBF2F0A7
:102658002A4E8500A0F57F40F63805F20725B042DE
:102668004FEA55253FF68EAD16461A4600230493C9
:102678004FF0030920230498DDF820E007EB030A54
:1026880005EB000CD4440EF1FF306044CEF1000E8F
:1026980000EA0E00A0EB0C00B9F1030F06BF1B18EF
:1026A80082442D18C7EB06108444E345FFF46AAD55
:1026B8000498ABEB0000C01AB9F1030FA0EB0500BA
:1026C800B0FBF6F003907FF4CFAD03994FF6F570A9
:1026D80081423FF6F3AD002A7FF454AD012E7FF618
:1026E80051AD7208A4E7059B002BA4D1802E3FF6BC
:1026F80049AD32467FE500BFE0870E08FFFFFE0FB9
:1027080010B50C4611461A4638B123460430BFF0BE
:1027180042FF003818BF012010BD0420FCE710B5A7
:102728000C4611461A4650B123460430BFF04CFF00
:1027380010F11E0F05D0003818BF012010BD04206D
:10274800FCE70220FAE7000070B50D46144606467D
:10275800002833D0244A01F00703D15C00292FD088
:1027680000220430BFF04EFF062D27D8DFE805F021
:1027780008050A16261919000620ABF057FB206039
:10278800002070BD062805D14FF4007323802388EC
:10279800B360F5E7ABF04AFB2080F8E7012323603C
:1027A800EEE7062801D0430806D1336A002B0CBF98
:1027B800042300232370E3E70123FBE70420E0E779
:1027C800062DFBD801A353F825F000BF8927000880
:1027D8008127000891270008A5270008C5270008B9
:1027E800B3270008B3270008E4850E08022970B54E
:1027F800044615461E4613D15368012B0AD0022BF6
:102808000CD01BB91168201DFFF712F9A3692B60C2
:10281800002070BD81692B681944F4E70169FAE763
:1028280001290AD10430FFF706F80028F0D0084B38
:102838001B5C33604FF0FF30EBE7042906D1436897
:10284800002BE5D00430FFF72DF8EEE71623F0E76C
:1028580000860E0837B51D46043001AB1446FEF756
:102868002AFF38B1064B1B5C2B604FF0FF34204623
:1028780003B030BD019BA342F9D01C23F4E700BF8D
:1028880000860E0813B51C46043001ABFEF77DFE2A
:1028980030B1044B1B5C23604FF0FF3002B010BD19
:1028A8000198FBE700860E0813B504460846019117
:1028B800ABF0DEF9019B04490246204602B0BDE8B0
:1028C800104001F015B900BFEC850E08F8B50646B2
:1028D80010460F46B1F0B2FC2C492D4D01380024AA
:1028E8000A4610F8013FBBB92C20ABF0AFF90546FA
:1028F8003846B1F0A3FC2F1D0246E3B206F14400AE
:102908003946FEF777FD0646C0B328469DF0D4FC4D
:10291800204B985DAAF0EEFB782BE2D8712B08D8F3
:10292800612B24D0622B25D02B2BDAD144F0030461
:10293800D7E7723B062BD4D80FF2040C5CF823F0CF
:1029480065290008EB28000881290008EB28000801
:10295800EB2800086B2900087129000844F00104DD
:10296800BFE744F00A04BCE744F00604B9E744F0C2
:102978001204B6E72946B4E71146B2E7E30603D5E1
:1029880029693846FFF754F82846F8BD34860E08FA
:1029980014860E0800860E082DE9F84FDDF828A0E9
:1029A800DDE90C84DDE90EC71646054660B18842AC
:1029B8000AD37A0747BF0AF1010A01340CF1010C66
:1029C8000A2258BFB0FBF2F517F0020938D0BCF163
:1029D800000F35D00CDB0B9A944531DA6444A245DC
:1029E80003DC0AF1FF38A4EB08084FF0000C27E0DD
:1029F8001CF1040F24DBCCF1000B00224FF00A0E6F
:102A0800B5FBFEF40EFB145102EB0C00002972D04A
:102A18001C46101A302104F8021B002800F1FF3B65
:102A2800AAEB020AD8BF4FF0000B2E225A7020469C
:102A38005A46C3F0A7F904EB0B034FF0000CFF2430
:102A48000AF1FF3E72460A21002A5ADA621C5245F0
:102A580064DBFE2CD4BF0021012103EB0A00B8F18E
:102A6800000F07D0A4EB0E04A4EB08082E23302295
:102A7800A04558D1B9F1000F0AD049B1034618460C
:102A8800013B10F8012C302AF9D02E2A08BF18462D
:102A980007F0010353EA0C0328D07B0726D4BCF1C6
:102AA800000F07F020070146BABFCCF1000C2D2318
:102AB8002B2347F04507BCF1630F01F8027B4370F5
:102AC80005DD6423BCFBF3F33033C11C83700A2398
:102AD8000846BCFBF3F4B4FBF3F203FB124203FB1E
:102AE80014C33032303300F8022B4B7000230370CC
:102AF800801BBDE8F88F01325A45254680D108462B
:102B080086E79442B4BF501C1046B5FBF1FB01FBAD
:102B18001B5530351D54013A5D4695E701332E2289
:102B28001A55012199E714B900F8013B012100F871
:102B3800012B013C9CE700002DE9F04F2DED028BA5
:102B4800884610EE101A97B000291C46B0EE408A4D
:102B58009DF888300D902ADAB4EE400AF1EE10FAAA
:102B680025D6B1EE408A2D230D9E06F8013B08F1CB
:102B7800FF389FED647AF0EEC87AF4EE477AF1EE0A
:102B880010FA02F0200316DD83F04902327083F058
:102B98004E0283F046037270F01CB370002303707A
:102BA8000D9BC01A17B0BDEC028BBDE8F08F002B4F
:102BB800DAD10D9EDDE7B4EE488AF1EE10FA08D7B7
:102BC80043F04E0283F0410332707370F01CB27010
:102BD800E4E742F02002662A6BD143F0040B002C94
:102BE800A8F103076CDA0624A7423B46A8BF234690
:102BF8000B9318EE103A002B08936FD0C3F3C7530A
:102C08007F3B07EE903A9FED407AF8EEE77A18EEB0
:102C1800103A67EE877AB3F17E5FFDEEE77A38BF48
:102C28004FF0000917EE905A28BF4FF0010909EB41
:102C38000500B7EE000A00F015FA089BB3F17E5FB5
:102C48002CBF4FF0010A4FF0FF3AB4EEC80AF1EE7C
:102C580010FA94BF012300234B4537D01BF0040F13
:102C68000AD0002D08DD631902334345C2BF8BF03B
:102C7800040343F0020B01341BF004030E9336D017
:102C8800A8F10203A342D8BF3C46002D2CDA022C3F
:102C980026DDAB1C24DAC5F10009A145A8BFA14671
:102CA800A9F10209A4EB0904092C31DC0023032251
:102CB80038E0672A0CBF43F0020B43F0010B8EE7A4
:102CC800632C91D110230B93092492E7554409EB07
:102CD8000500B7EE000A00F0C5F9B6E7089DBDE7A4
:102CE80001344FF00009DFE76B1C1C44F9E71BF0C7
:102CF800020F00D004B90134092C07DC00239946DF
:102D080007220FE0FFFF7F7F9B209A3E4FF00009CC
:102D18000E9A002AA4F1090318BF03224FF00904F0
:102D280008BF0722A8EB0408062CA8EB02026FEAEA
:102D38000501A046A8BF4FF0060841449A42D4BFF7
:102D4800A318E3180C911193119BA3EB08030F939D
:102D5800089B002B00F0C4800E9B002B00F0BC8069
:102D6800002D08F1FF3080F2B380B9F1000F00F0B8
:102D7800BC803346302103F8021B2E22727018469D
:102D88004A46C2F0FFFFFF2203464B4409EB080006
:102D980007920A2101220991904500F3A980B8F110
:102DA800060F40F3AD80012840F3AA80B8F1070F61
:102DB80000F0A380022800F0A08002386427B0EE5B
:102DC800480A0A9300F04EF9F6EE007A30EE270A28
:102DD8000999BCEEC00A324610EE103A7B431F46F2
:102DE800079B03930F9B02930B9BCDE9045BCDE9F3
:102DF800008338460A9B1093FFF7CEFD15AA0146BB
:102E08000A90304600F05CF9DDED157A0A9977EE04
:102E1800C87A17EE902A002A00F09380B8F1060FBE
:102E2800C4BF08EB4802123A4FF0010AC8BF0AFAB9
:102E380002FA0D22109B0A97F0EE678A1092109AF8
:102E4800013A10927DD017EE902A002A079A039231
:102E58000F9A02920B9A09991393B4BF5744A7EBA0
:102E68000A07CDE90082CDE9045B32463846FFF710
:102E780093FD15AA01461290304600F021F9DDEDC8
:102E8800157A129977EEC87A17EE902A002A58D048
:102E9800B0EEE77AF0EEE86A37EE667A139B17EE43
:102EA800102A002A2EDB4FF00A0CB7FBFCF00CFBB3
:102EB80010700243002A0A9A08BF3A460A9208BFCD
:102EC800F0EE678ABAF1010F20D94FEA5A0AB6E73D
:102ED8000C98079533465CE70E9B0C980793F9E727
:102EE800089A07923346104653E7CDF81C90F1E74D
:102EF800099F4F43099701324EE701380A275EE7D9
:102F080001275CE70A97F0EE678ADBE70C9AA04591
:102F180002F101020C9202DA08F1010814E70A9A98
:102F280097420ED0079A03920F9A02920B9ADDE904
:102F38000910CDE90082CDE9045B3246FFF72CFD8C
:102F4800014670182CE600BF08B5044631B1054BA0
:102F58004A6C036009680023ADF0DAF820469DF05A
:102F68005BF900BFE4030E082DE9FF421F460192FA
:102F7800461812B1023A222A38D80446B4422546E5
:102F88003DD214F8010B9EF063FA81460028F5D172
:102F98002B782B2B2DD12546711B284601AAA8F08A
:102FA800E2FB019B054428460024B042014629D390
:102FB800B9F1000F00D06442640044F00104A94252
:102FC80009D00D46B5422B4641D2187801359EF0FE
:102FD8003FFA0028F6D1019A1F492048012A08BF64
:102FE8000022ADF055F83946FFF7AEFF1C48A9F0AE
:102FF80085FE2D2B04BF25464FF00109CCE74FF085
:103008000009C9E710F801CBACF13002092A0AD946
:10301800BCF15F0FC9D04CF02002A2F1610CBCF1E9
:10302800190FC5D8573A9342C2D984FB0341B1EB73
:10303800E47F03D1144494EA4402B6D5711B4A468E
:1030480003A80395AEF043FA03990446B7E7C2D143
:10305800204604B0BDE8F082CFF60D0874040E08CF
:10306800BAF60D0810B5E8B1B5EE400AF1EE10FA5F
:1030780018D010EE104AC4F3C753034410F10A0FD6
:1030880063F3DE540FD3434200EE903AB1EE040AE4
:10309800F8EEE00AC1F00AFB07EE904AC7EE807A24
:1030A800B0EE670A10BD07EE900AB1EE040AF8EE1A
:1030B800E70AC1F0FBFA07EE904A60EE277AEFE7DD
:1030C8002DE9F74F0023DFF804E10192014404469B
:1030D8001A4618469C461E469B461D464FF00A084F
:1030E8008C4252D2274617F8019BA9F1300ABAF14F
:1030F800090F32D8022D06D1334CA44501DC08FB58
:103108000CAC3C46ECE7BAF1000F01D076450BD980
:103118000DB90132F5E701300125F2E7764594BF94
:1031280008FB06F60133013A002AF7D102464AB9EC
:1031380076450FD8012D08BF03F1FF3308FB06A61B
:103148000020DEE776459CBF03F1FF3308FB06F657
:10315800013AECE78DBB0133F2E78DB9B9F12E0FD7
:10316800DAD049F0200ABAF1650F0BD1B94203D978
:1031780065782B2D1BD1A71C8F4223D00225C0E7D1
:10318800022DEED1B9F15F0FBBD0BBF1000F16D104
:1031980007EE906AD018B8EE670A6044FFF762FF3E
:1031A800019B83ED000A204603B0BDE8F08F2D2D6A
:1031B800E4D1A71C4FF0010BDEE71046ACE7CCF1D9
:1031C800000CE5E70024EEE764666606979999190E
:1031D8002DE9F04F2DED048B9FED638ADFF898B150
:1031E8009FED629A83B0054690461F4646188DEDBE
:1031F800018A4FF00009F0EE488AB5422C4676D293
:1032080015F8010B9EF024F982460028F5D12378A1
:103218002B2B66D12C46A31C9E427BD9237843F0E6
:103228002003692B66D1637843F020036E2B71D19C
:10323800A37843F02003662B6CD1E31D9E4204F172
:1032480003008DED019A1AD9E37843F02003692B26
:1032580015D1237943F020036E2B10D1637943F005
:103268002003692B0BD1A37943F02003742B06D1DB
:10327800E37943F02003792B01D104F10800B8F178
:10328800000F0ED0B0420CD2037843F020036A2B13
:1032980007D1844204BF4FF07E530193013049F0B7
:1032A8000209BAF1000F05D0DDED017AF1EE677A77
:1032B800CDED017A844234D00446B442254637D253
:1032C800287801349EF0C4F80028F6D14FB3B9F13C
:1032D800000F26D19DED018ACDED018A4FF001093D
:1032E8008BE72D2B04BF2C464FF0010A93E74FF0D4
:1032F800000A90E76E2B0DD1637843F02003612B11
:1033080008D1A37843F020036E2B03D1E01CCDF83D
:1033180004B0B4E701AA311B2046FFF7D1FE00280C
:10332800ADD113491348ACF01DFE1099FFF70CFE00
:10333800CCD1B9F1010FF4D09DED010AB9F1000F1C
:103348000AD0F0EE400AB0EE480AABF0DFFD03B059
:10335800BDEC048BBDE8F08F17B1DFED030AF4E78D
:10336800ACF0CCFFF3E700BF000000000000807F56
:10337800DBF60D0874040E080000C07F08461146ED
:10338800C3F09EBC37B5054608460191C2F034FD2E
:10339800044620B102466B68019928689847204680
:1033A80003B030BD2DE9F74F89469DF8301092469D
:1033B8000D9A11F0DF0F8046A2EB0A0559D030298B
:1033C8005AD1C3F34721002959D05F29304E0CBF89
:1033D8000527042792FBF7F107FB112106F10500E9
:1033E80008BF304609B9013501327E1E92FBF7F15C
:1033F80007FB1122B21A861813F0200241D005EB00
:10340800D573A5EB63045D10002D3EDDAB465F452B
:103418003A46D8F80430D8F80000A8BF5A463146D2
:1034280001929847019AABEB020BBBF1000FEEDC5F
:10343800BAF1000F07D0D8F80430D8F80000524687
:10344800494698475544002C0FDD2544A742B94604
:10345800A8BFA146D8F80430D8F800004A4631463B
:10346800A4EB09049847002CF0DC284603B0BDE81B
:10347800F08F084E1027BFE70CAE0127BCE7064EB9
:10348800F8E713F00104BFD02C460025D0E700BFB1
:103498001CE70D0827E70D0810E70D082DE9F04F88
:1034A80093B01E469DF874300793CB07DDE91E875D
:1034B8001C9D81460C4692460BD4880703D10968A7
:1034C8007D4B994205D02046AAF0B0FC400040F060
:1034D800010415F0210306D1079A302A03D1B84513
:1034E800B8BFB8461F462046ADF0FCFE00280DF1D7
:1034F800280B18DBA90712D52B238DF828300DF1DE
:1035080029012B07F6B21DD5BAF1020F0DD10B46D2
:10351800302003F8020B701C4870194612E06A0745
:1035280001D52023E9E75946EBE7BAF1080F5FD147
:1035380028064FF030030B7045BF06F10E034B70A1
:10354800013102310EA80023012F0B904FF010001B
:10355800A1EB0B020B70C5F34721C8BF05430692C8
:1035680015F01002CDE90C03CDE902618DF8273082
:10357800059247D0CDE900A30DAA23460CA90BA8B4
:10358800ADF076FD03782D2B824606D18DF82730D5
:103598000D9B013B00F1010A0D93012F40F385803B
:1035A8000D9C059BBC42B8BF3C462BB19DF827300B
:1035B80003B10134069B1C44A0452EDD15F0010320
:1035C800A8EB04042AD126461C4625F001054EB175
:1035D800202300930023019638491A464846FFF7EE
:1035E800E1FE0646059B002B5CD1302307933AE0A9
:1035F800BAF1100FA6D10B46302003F8020B06F1E2
:10360800170089E70AABCDE900A30DAA23460CA948
:103618000BA8ADF02DFD8246BFE700240026D4E7B5
:10362800002426469DF827305BB100230122CDE90E
:1036380000320DF127014846FFF7B4FE08F1FF38C4
:103648000644069B63B100230122CDE900325946A6
:10365800069A4846FFF7A6FE069B0644A8EB030811
:10366800012FD8BF4746079B00930D9A01972B4619
:1036780051464846FFF796FE06444CB12023009376
:1036880000230E4901941A464846FFF78BFE06446C
:103698000B980EAB984201D09CF00EFE304613B04A
:1036A800BDE8F08F30230793BCE7059B002BB7D10B
:1036B8001C461E464746D6E7EC070E08538E0E08F2
:1036C8002DE9F0438DB007469007DDF85090164677
:1036D800984660D412F0040F0CBF002320230A463A
:1036E80000932121159B03A8FFF726FAF20504464B
:1036F8001FD52E2103A8C2F0DBFBD0B9652103A892
:10370800C2F0D6FBA8B96E2103A8C2F0D1FB80B9DC
:10371800631C04F130026A4430336B442E2102F8F2
:10372800241C0234302203F8242CA3186B4403F819
:10373800240C73060ED504F13002631C0DEB020451
:10374800252204F8242C03F130026A44002102F8EF
:10375800241C1C4616F010051FD09DF80C302F2B8A
:103768004FF000031BD8012203A9CDE900323846E7
:10377800FFF718FE09F1FF390546013C0DF10D016F
:10378800CDE90089334622463846FFF70BFE284428
:103798000DB0BDE8F0832B23A1E703A9F0E703A947
:1037A8001D46EDE72DE9F04F80468BB01446002703
:1037B8000B461D4613F8012B0AB1252AF9D1A94257
:1037C80008D26E1AD8F80430D8F800003246984764
:1037D800374429460B78002B00F0828120230131E1
:1037E800029300250B4613F8016B0EB90A2018E066
:1037F8002D2E03D145F001051946F3E72B2E02D1F2
:1038080045F00205F8E7202E02D145F00405F3E75C
:10381800302E22D145F010050296EDE700FB063662
:10382800303E894611F8013BA3F13002092AF5D947
:103838002E2B3CD199F801302A2B10D00A460023B0
:103848000A21914612F801BBABF1300009280AD8C9
:1038580001FB03BBABF13003F3E70026C6E754F8DE
:10386800043B09F1020923EAE37B99F800306C2B49
:1038780008BF09F1010999F800A0BAF1000F00F09A
:103888002F81BAF1780F09D8BAF1570F12D8BAF1C7
:10389800470F59D8BAF1440F00F21081D8F8043014
:1038A800D8F8000001224946984701378DE04FF0CB
:1038B800FF3BDAE7AAF15803202BEFD801A252F810
:1038C80023F000BF57390008A5380008A5380008BC
:1038D800A5380008A5380008A5380008A53800084C
:1038E800A5380008A5380008A5380008B939000827
:1038F800E539000857390008C53A0008C53A0008F4
:10390800C53A0008A5380008A5380008A5380008F9
:10391800A5380008A5380008A5380008A53800080B
:10392800A538000857390008FB390008A5380008F1
:10393800233A0008A538000857390008A5380008B8
:10394800A538000857390008BAF1500FA6D154F825
:10395800043BBAF1640F194672D0BAF1750F0CBF67
:103968000A2010200022BAF1640F8DF817206ED1BA
:10397800934267DA2D228DF8172059422AF00F0357
:103988000F3BDBB20DF1280A0A3B0DF1180BB1FB16
:10399800F0FC00FB1C12092A8CBFD21830320AF83E
:1039A800012DDA458E46614659D07045EFD956E06B
:1039B80054F8043B01965BB1029B4B4900930422E7
:1039C8002B464046FFF7EEFC074409F10101EFE6FC
:1039D800029B009345492B460522F2E754F8043B25
:1039E8008DF81830029B009301962B46012206A9F8
:1039F800E7E706A954F8040B9DF003FBBBF1FF3F72
:103A0800014604D0069B9B4538BFCDF818B0029BF1
:103A18000093069A01962B46D3E754F8041B0391AA
:103A28000846C2F0E9F9BBF1FF3F0399024602D00C
:103A3800584528BF5A46029B009301962B46C0E77B
:103A48000A208FE7AA0729D52B228DF81720002BEB
:103A580094D14FF030038DF827300DF1270A15F077
:103A6800100B9DF817301DD033B3029B0093012231
:103A780001922B460DF117014046FFF793FC013EDA
:103A88008346029B00930AAA01962B46A2EB0A02E0
:103A980051464046FFF786FC584495E76A07D6D555
:103AA8002022D2E7002BECD006AA9245E9D90AF8E1
:103AB800013C0AF1FF3AE4E79B46E2E7073424F0C9
:103AC8000704F4E80201D5F061FDCDE9006B00EED2
:103AD800100A029B2A4651464046FFF7F1FD73E75C
:103AE80038460BB0BDE8F08FFCE60D0801E70D087D
:103AF8000EB403B503AA52F8041B0192FFF752FE55
:0C3B080002B05DF804EB03B07047000051
:02000004080AE8
:10000000FEE700000F49D1F8883043F47003C1F8CF
:1000100088300D4B1A68002042F001021A60986087
:100020001A6822F0847222F480321A60074A5A60F9
:100030001A6822F480221A60D8604FF000638B6047
:10004000704700BF00ED00E000380240103000248F
:1000500030B5002495B010252A4621460AA80494FC
:1000600025F094FE284B01941A6C42F080521A64D9
:100070001B6C03F080530193019B244B029419687D
:1000800041F4804119601B68059403F48043029396
:100090000122029B4FF48033CDE908234FF4800105
:1000A00002230F22CDE90E3112930723CDE90B4530
:1000B000039208254FF4A87213934FF4A05C4FF4F9
:1000C000805308A8CDE91052CDE906C329F08CFA77
:1000D00010B10F482FF05AFB119B1099DB00B3FBB6
:1000E000F1F33021B3FBF1F201FB1232003A129925
:1000F000B3FBF1F118BF012203A831F03BFB08B1BB
:100100000448E7E715B030BD0038024000700040F9
:10011000F0990D08029A0D080446DFF82CD00B491F
:100120000B4A0C4B03E051F8040B42F8040B9A42C3
:10013000F9D300200849094A01E041F8040B914233
:10014000FBD320462FF078BCF8FF01200CEA0E0804
:10015000000000203400002034000020C8220020CD
:1001600040F8044B40F8045B40F8046B40F8047B13
:1001700040F8048B40F8049B40F804AB40F804BB03
:1001800040F804CB40F804DB68467047024B5A69DC
:10019000026058610020704734000020024B5A6909
:1001A00012685A61704700BF34000020024B9A6900
:1001B000C0E900219861704734000020044A936927
:1001C0001968916110B15A6818461047704700BF0E
:1001D0003400002038B5054D0446AB690BB1A3428D
:1001E00000D338BD0120FFF7E9FFF6E73400002017
:1001F000C460056146618761C0F81C80C0F820902A
:10020000C0F824A0C0F828B0C0F82CD080ED0C8B2A
:1002100080ED0E9B80ED10ABC0F808E0FFF7B6BF95
:10022000124D6C6908B50CB92FF0F2FB60602046E6
:10023000FFF7D0FF23686B612046C46805694669F3
:100240008769D0F81C80D0F82090D0F824A0D0F88E
:1002500028B0D0F82CD090ED0C8B90ED0E9B90ED4B
:1002600010ABD0F808E00120704700BF3400002038
:1002700010B50021044600F0C9FA18B914B120469F
:100280000CF02CFD10BD002100F0C0BA10B501210A
:10029000044600F0BBFA18B914B120460CF01EFD5C
:1002A00010BDFFF7E5BF10B501220C4600F0C8FBFA
:1002B00018B914B120460CF011FD10BD00F0C0BB00
:1002C00000F07EBB2DE9F0432A4C00254FF0030CD3
:1002D000D4F8AC620021013143189A0803F00303FB
:1002E000B25C5B0042FA03F303F00303022BF2D08B
:1002F000D4F8B832090103EB00108E0889B300EB83
:10030000860603681A0729D1D4F8B8125A1AC2F31C
:10031000011E99424FEA92174FEA4E0E4FEA12120F
:100320001CD8D4F8BC12994218D9D4F8AC9219F858
:10033000078048FA0EF303F003030CFA0EF1012BC9
:1003400041EA08010AD104EB450E3F2D09F80710D8
:100350009ABF0135AEF8CC22C4F8C8320430B0429E
:10036000CFD12DB1013D04EB4503B3F8CC02AFE78B
:10037000BDE8F0833400002030B51C4CD4E9AD5307
:10038000C01AC109C0F3021E6B5C012202FA0EF210
:1003900023EA02036B54D4F8C02283094FEA101CED
:1003A000B2EB901FD4F8AC0288BFC4F8C032C15C75
:1003B0004FEA9C0E0CF0030303255B0005FA03F3E0
:1003C00021EA030300F80E300CF1010CD4F8AC0262
:1003D0004FEA9C0E0CF0030310F80E105A0041FA7D
:1003E00002F202F00302022AE7D030BD34000020FE
:1003F00021F00F010A1A10B5013A134CD200A4FBE8
:100400000242124C520AC4F8BC12A1EB8211C4E998
:10041000AB020346C4F8B81291000132134407310D
:1004200002EBD102C4F8B432002125F0AFFC002366
:1004300001214FF0FF32C4E9B033C4E9D432238143
:10044000A4F84C1310BD00BFF32C23FA3400002095
:10045000024A138902331381704700BF3400002021
:10046000024A1389023B1381704700BF3400002009
:10047000024B1889003818BF012070473400002053
:10048000F8B51D4D2B89002243F00103C5F8C822A1
:100490002B81C5F8502305F1080405F500760327E4
:1004A00054F8043F1A071AD1D5F8B822981AC0F3A5
:1004B000011193424FEA901C4FEA41014FEA10109C
:1004C0000DD3D5F8BC22934209D2D5F8AC2212F84C
:1004D0000CE04EFA01F303F00303012B02D0A64215
:1004E000DED1F8BD07FA01F141EA0E0102F80C1065
:1004F000FFF7E8FEF3E700BF34000020A9B32DE9C1
:10050000F0411A4E0F46051F00244FF0030855F81E
:10051000043F1A0704F101041AD1D6F8B822981A38
:10052000C0F3011C9A424FEA90114FEA4C0C4FEA7B
:1005300010100DD8D6F8BC229A4209D9D6F8AC22B0
:1005400012F801E04EFA0CF303F00303012B03D081
:10055000A742DCD1BDE8F08108FA0CFC4CEA0E0C95
:1005600002F801C0FFF7AEFEF2E77047340000204A
:100570002DE9F043634ED6F8C83283B0002B00F06B
:10058000BD80D6E9AB1300259800C6F8C85290B1DB
:100590000024A20804F003038A5C5B0042FA03F320
:1005A00003F00303032B55D001348442F1D3D6F872
:1005B000C832002BE9D1D6F8C4324FF000094FEA17
:1005C000D3080127D6F8B43213F809504FEAC9040A
:1005D00025B939E06D0804F1010435D004F00303B6
:1005E000E8074FEA94024FEA4303F3D58A5C42FAE4
:1005F00003F303F00303012BECD1D6F8B802230177
:100600006A46C35840F2133100EB04105BB10BF0A3
:10061000E7FC009B3BB10CF0B3FDDDE900010CF001
:100620007FFD0CF0C3FDE308D6F8B40204F0070127
:10063000C25C07FA01F122EA0102C2546D08D6F841
:10064000AC1204F10104C9D1C84509F1010313D06A
:100650009946B7E72046FFF735FED6F8B032D6F810
:10066000AC120134B4EB830F4FEA830091D3D6F878
:10067000C832002B89D19EE74FF0000E75467246B6
:1006800003274FF0020C08E001282CD0D6F8C43222
:1006900001329A421DD8D6F8AC12900802F003033A
:1006A0000C5C5B0044FA03F000F00300022801EB4D
:1006B00092011FD00328E7D10CFA03F324EA0303C5
:1006C0000B70D6F8C432964601329A424FF00005BC
:1006D000E1D93389002223F00103C6E9B02E33812A
:1006E00003B0BDE8F08307FA03F324EA030301250E
:1006F0000B70CBE7002DF6D19646C7E7D6F8AC12C3
:1007000059E700BF34000020044B1A89002142F051
:100710000102C3F8C8121A81FFF72ABF3400002073
:10072000394BD3E9AE122DE9F047521A0024D3E930
:10073000AB61C0E90144C0E90344C0E9054402607B
:100740004FEA810CA646274625462246A146214669
:10075000A04616F8093049000B4103F00303012BB2
:1007600047D0022B41D0002B38D0013294450ED017
:100770004FEA920902F0030116F809304FEA410AE4
:1007800043FA0AF313F0030301D0012BE1D1012D49
:1007900011D0022D02D14169013141618169A94223
:1007A00038BF856194450FD0012B26D04FEA9209BE
:1007B00002F00301CDE70169013101618169A942BC
:1007C00038BF85619445EFD1474500D9C760240102
:1007D0004FEA0E13C0E90143BDE8F0870EF1010EA8
:1007E000C0F808E001371D46BFE701344460013519
:1007F000BBE7013444601D46B7E7B84501D2C76086
:10080000B8460027D2E700BF340000200F302DE9A2
:10081000F84306095AD0694C2389002B56D1B4F805
:100820004C33002B0D460CBF4FF0010E4FF0000E65
:1008300050D1D4F8C002D4F8B072B84239D2D4F84A
:10084000ACC2411E614400221AE00132964251D9E5
:1008500013F00C0F1ED10132964240F2A68013F025
:10086000300F1CD10132964240F2A28013F0C00F2B
:100870001AD10132964240F29E800130B84218D21D
:1008800011F8013F13F0030FDFD013F00C0F4FF0FE
:100890000002E0D013F0300F4FF00002E2D013F06E
:1008A000C00F4FF00002E4D00130B8424FF0000218
:1008B000E6D3BEF1000F09D135F018FDD4F8C0021F
:1008C000D4F8B072B8424FF0010EB8D300231846E6
:1008D000BDE8F883D4E9D4239A42AAD335F006FDC3
:1008E000D4F8C002D4F8B072B84238BF4FF0010E4D
:1008F000A5D3EBE78000811A012A01F1010703D19A
:10090000431C9B08C4F8C032D4F8C432834238BFB9
:1009100003464FEA970EC4F8C43207F003031CF8ED
:100920000E904FEA43080123023103FA08F343EA29
:10093000090388420CF80E3013D34FF002084FEA37
:10094000910CD4F8ACE201F003031EF80C905B00AC
:1009500008FA03F3013143EA090388420EF80C3028
:10096000EDD2D4F85033D4F8B8823344C4F85033BD
:1009700008EB071312011846002125F007FAEA07D1
:100980004FEA07160346A2D50022D4F8B40248F86D
:100990000620F9080122445C07F0070702FA07F76E
:1009A000274347541846BDE8F88380000130A2E78A
:1009B000800002309FE7800003309CE73400002075
:1009C000044B1B8923F0010313B908B1FFF7D4BC12
:1009D000704700BF3400002010F00F021CD11749EF
:1009E000D1F8B832834218D810B4D1F8BC4284424E
:1009F0000ED9C31AD1F8AC429909C3F30110615C56
:100A00004000014101F0030101294FEA131306D010
:100A100010465DF8044B70470022104670470132C3
:100A20009918880801F00301205C490040FA01F19F
:100A300001F003010229F2D01201E9E7340000209D
:100A40002DE9F84F88460646002800F0AF800029BF
:100A500074D05A4D2C89002C75D1D5F8B812D5F820
:100A6000B072411A0B09581C08F10F0EB0EB870F3A
:100A70004FEA1E1E4FEA870AA44680F09D80D5F8F3
:100A8000AC920127840800F0030B19F804404FEAE8
:100A90004B0B44FA0BF404F00304022C57D02CB98E
:100AA0000CF1010C0CEB0704744551D3BE4541D049
:100AB00020D3BC44F4454FD2002A44D0D5F8B42208
:100AC000C90903F00703515C1941404601F00101D7
:100AD000FFF79CFE0446B0B33A01314625F012F907
:100AE0002B8923F0010333BB3046FFF745FC20463A
:100AF000BDE8F88F9E4470463B444FF003084FEA30
:100B0000900CD5F8AC1200F0030211F80C40520022
:100B100008FA02F2013024EA0202984201F80C209D
:100B2000EDD1D5F8C0324FEA9E02B3EB9E0F88BFDD
:100B3000C5F8C02234462046BDE8F88F1F4B1C89FB
:100B400034F00104D1D000242046BDE8F88F0137ED
:100B50000130824596D1A9E703EB0E013B4499424F
:100B600011D94FF002089808D5F8AC4203F00302FF
:100B700014F800C0520008FA02F2013342EA0C02F3
:100B800099422254EFD1D5F8C432AEEB07028B4222
:100B900038BF0B46120106EB071034460021C5F89A
:100BA000C43225F0F3F82046BDE8F88F01464046F0
:100BB000BDE8F84FFFF72ABE012777E73400002091
:100BC00010B58AB0044603A8FFF7AAFDDDE904309A
:100BD000039A00900749204662F78EFFDDE908314D
:100BE0000698079ACDE900100349204662F784FF72
:100BF0000AB010BD189A0D083C9A0D082DE9F84F5F
:100C0000DFF85CB14A49DBF8B822074662F774FFA7
:100C1000DBF8B022920077D0DFF84881DFF848A1F6
:100C2000DFF8489100250EE0012E3DD02E224149EB
:100C3000384662F761FFDBF8B0320135B5EB830F60
:100C40004FEA830260D215F03F0610D005F003068C
:100C50007600DBF8AC22AB08D35C43FA06F606F06C
:100C60000306022E1ED0032EDED16D22DFE7DBF855
:100C7000AC122C46A00804F00303085C5B0040FAA9
:100C800003F39B0702D101349442F3D3621B7F2A02
:100C90002ED805F0030676002A014146384662F751
:100CA0002BFFD6E73D22C2E7DBF8B8222B01D25852
:100CB0004A452FD0204B9A422ED0204B9A422FD01B
:100CC0001F4B9A422AD01F4B9A4227D01E4B9A4262
:100CD00028D01E4B9A4225D01D4B9A4226D01D4B40
:100CE0009A4221D01C4B9A420CBF4D2268229EE7AB
:100CF00092095146384662F7FFFEDBF8B03224F025
:100D00003F05B5EB830FC7D338461449BDE8F84F0C
:100D100062F73CBB54228AE74C2288E7532286E7DD
:100D2000442284E7412282E7422280E746227EE78E
:100D3000849A0D08C49A0D083C090E0818000E0884
:100D400000150E088C130E08A4FC0D0858FC0D08A5
:100D500024050E0878050E08D00A0E08809A0D08A2
:100D600034000020BC9A0D08A09A0D0854160E08F5
:100D7000064A0346506A1A684168C1F31E018A4256
:100D800002D3521A1A6070470068F5E73400002059
:100D9000014441F20553884204D398B2012838BF78
:100DA0000120704710F8012B03EB43135340F2E787
:100DB000034B044A5A620022C3F80422704700BF62
:100DC00034000020245C0E082DE9F04781460F46D0
:100DD000002943D0FFF7DCFF214B5C6A82460CB947
:100DE000204637E094F90730E668002B06F1FF361D
:100DF0004FF0000516DB013604F11808B54215D393
:100E00002468ECE706EB05084FEA580808F10603EA
:100E10003A4654F82310484625F018F80028CCBF6D
:100E200045464646731B012BECD8E4E7236933F8AB
:100E300015309A4510D163695B5D9F420CD158F81B
:100E400025003A46494624F0C9FF28B96068C0F336
:100E50001E002844BDE8F0870135CFE70120F9E7FF
:100E6000340000202DE9F84380460E46FFF7ACFF22
:100E70000246002840F09280FF2E03D949494A4893
:100E80000BF012F9494CD4F80402751C90B1D4E966
:100E900082132B448B4229D92944FFF70FFA0746C6
:100EA000D8B90246D4F80C12D4F80402FFF706FAB7
:100EB000C4F80472802D2F4638BF80273846FFF7CC
:100EC000E2F9C4F80402D0BB2846FFF7DCF9C4F805
:100ED000040298BB28460BF001FFD4F808322B44DB
:100EE000C4F80832D4F80432002BE3D0D4F80C3222
:100EF000D4F804721F4441462B44324638464FF022
:100F00000008C4F80C3224F0FDFE07F806803146D4
:100F10003846FFF73DFF636AD3E90253AB4281468F
:100F20002AD36D000A2D38BF0A25C5EBC50018303D
:100F3000FFF7A9F948B9C4F80402CBE72F4600230C
:100F4000C4F80872C4F80C32D0E700F1180303EBC0
:100F50008503626A036103EB4503436153680260E2
:100F6000D268C0F80C80C3F31E031344426863F3D5
:100F70001E02C0E901256062636AD3E903025B696E
:100F800022F810901E54821D636A43F82270DA68BA
:100F90000132DA605A68C2F31E0202441046BDE80C
:100FA000F88300BFC79A0D0878030E0834000020AC
:100FB00010B5044624F024FF01462046BDE8104049
:100FC000FFF750BF07B5019001A8FFF7D1FE019AC6
:100FD000036933F8120003B05DF804FB07B5019014
:100FE00001A8FFF7C5FE019B4269D05C03B05DF824
:100FF00004FB07B5019001A8FFF7BAFE019B063379
:1010000050F8230003B05DF804FB13B5019001A86C
:101010000C46FFF7ADFE019B4269D25C22600633AD
:1010200050F8230002B010BD2DE9F8431D460023FF
:1010300003600B6013602B60164BDFF85C905C6AFA
:101040000746884616460CB14C4505D12B683268D8
:1010500013442B60BDE8F8833B6801333B60E268D2
:10106000D8F800301344C8F800306269E368D1183A
:101070008A4207D32046FFF7AFFC2B682468184448
:101080002860E0E7336812F8010B01330344336052
:10109000EEE700BF34000020245C0E082DE9F84381
:1010A0000D4B0E4F5C6ADFF83880DFF838900CB1DA
:1010B000BC4201D1BDE8F883E36804F1180505EBF3
:1010C0008306B54201D32468F1E755F8042B414665
:1010D000484662F711FDF4E734000020245C0E0856
:1010E000CC9A0D0808E70D0830B50023202411F82C
:1010F000012F0AB9027030BD120600F101051FD59B
:101100000BB1047028460B78124A03F07F036BB9C9
:10111000013A12F8013F13F0800F054600F101007B
:101120000BD003F07F032B700123E0E712F9015B82
:10113000002DFBDA013BDBB2E9E700F8013CE8E710
:10114000012B04BF047028460B7800F8013B0223F2
:10115000CDE700BFD39A0D0838B544680368214431
:101160009942054610D9037B1BB1084800210AF0BB
:101170009BFF01F1100424F0070408348068214625
:10118000FFF791F82C60A86038BD00BF78030E0807
:1011900070B504460E4611461546FFF7DDFFD4E94B
:1011A00001302A463146184424F0DCFD62682A44A6
:1011B000626070BD70B54668B142044628BF3146D2
:1011C0000D460121FFF7C8FFA368681C5919721B5F
:1011D000184424F0C7FD6368A068013363602844A5
:1011E00070BD38B50129044638BF012100250846E5
:1011F00021606560FFF73CF82573A06038BD38B505
:1012000005460C460131FFF7ECFF6C6038BD00234A
:10121000C0E90132012301600373704738B51446F9
:101220000546FFF7DEFF024B2560636038BD00BF57
:1012300091110A08037B10B5044613B98068FFF7C3
:101240003FF80023A36010BD13B501901020FFF7F5
:101250000FF801990446FFF7C4FF204602B010BD05
:1012600010B5044648B1037B13B98068FFF728F82E
:101270002046BDE81040FFF723B810BD38B5037B0A
:1012800004460D461BB1074800210AF00DFF016816
:1012900080682944FFF707F82368A0601D44256093
:1012A000184438BD78030E0838B504460D46FFF7DC
:1012B00053FFD4E901301D446560184438BDD0E9BE
:1012C00000239A4210B5044602D10121FFF7D6FF50
:1012D000D4E901320021D154A06810BD10B50C46EC
:1012E0000121FFF7E1FF047010BD7F29F8B50C461E
:1012F000CEB204D80121FFF7D7FF0670F8BD06F083
:101300003F06B1F5006FC1F3871546F0800607D29E
:101310000221FFF7C9FF65F03F0505704670EDE754
:1013200005F03F05B1F5803FC1F3073745F0800573
:1013300008D20321FFF7B8FF67F01F070770457059
:101340008670DBE70421FFF7AFFFA40C07F03F072F
:1013500064F00F0467F07F07047047708570C670F3
:10136000CCE713B504460846019124F049FD0199E4
:101370000246204602B0BDE81040FFF709BF10B595
:101380001446FFF717FF047010BD10B51446FFF7A1
:1013900011FF047010BD43688B422CBF591A002105
:1013A0004160704738B50446154662688A4208466F
:1013B00003D929448A4201D8606038BDA368521A13
:1013C0001844194424F0CEFC6268521B6260F4E7B2
:1013D00090F9001003780029024601DB1846704797
:1013E00003F07F004023184206D112F8013F03F0BA
:1013F000C001802904D0704720EA03005B08F2E7AF
:1014000003F03F0343EA8010EFE7431C1846013323
:10141000027802F0C002802AF8D07047034600200C
:10142000994200D8704711F8012D02F0C002802ABD
:1014300018BF0130F4E701440346002099421A46E0
:1014400000D87047127802F0C002802A03F101032D
:1014500018BF0130F2E700007F289DBF024B185CE7
:10146000C0F340000020704737E70D087F289DBF7C
:10147000024B185CC0F3C0000020704737E70D082E
:101480007F289DBF024B185CC0F38000002070478E
:1014900037E70D087F289DBF024B185CC0F3801012
:1014A0000020704737E70D087F2809D8064B1B5CE2
:1014B00013F00C0F06D1A0F15F035842584170475A
:1014C000002070470120704737E70D087F289DBF37
:1014D000024B185CC0F300100020704737E70D087E
:1014E0007F289DBF024B185CC0F34010002070475E
:1014F00037E70D0808B50246FFF7E8FF00B12032D4
:10150000104608BD08B50246FFF7EAFF00B1203AD1
:10151000104608BD3038092884BF20F02000073865
:10152000704710B501440246E5240020914203D8DB
:10153000B0FA80F0400917E012F8013B30B103F037
:10154000C003802B11D10138C0B2EFE7BF2B09D9FE
:10155000F72B09D8D80800F0060044FA00F000F094
:101560000300E3E71B06E1D510BD0020FCE70239CC
:1015700081420B4603D31A880239002AF8D002337D
:10158000181A40107047B2EB131F70B505464FEAAA
:10159000131614D9901B03F00F0401EB4601024609
:1015A0000E46012A31F8023B18BF3368E3409BB274
:1015B000013A25F8023BF3D103B9013870BD002090
:1015C000FCE7F0B5059F0024D21B2646A74210D1A8
:1015D00000EB470C01EB47010024A24214D10CEBB5
:1015E00042031EB101212CF812100233181A4010C8
:1015F000F0BD31F8145033F814C06544354420F878
:1016000014502E0C0134E1E731F8145035442CF815
:1016100014502E0C0134E0E7F0B4049F0025D21BD7
:101620002C46AF420BD100EB470601EB47050023E8
:101630009A420FD106EB4201F0BCFFF798BF31F898
:101640001560344433F81560A41B20F815402414A9
:101650000135E6E735F813100C4426F8134024143E
:101660000133E5E72DE9F043079CDDF828E0DDE9EB
:1016700008760239154684464FF6FF78A4EB020936
:1016800055B900EB42011FB1012320F8123002319D
:10169000BDE8F043FFF76BBF31F8024F013D444412
:1016A000264405EB0904AC4296BF33F8024B4FF6D3
:1016B000FF744444744486EA040E17FA8EF72CF83B
:1016C000027B4FEA144E360C3F0CD9E738B502299D
:1016D0000446806838BF02210D4618B12368B1EB7B
:1016E000930F07D96900FEF7DEFD2368A06065F35C
:1016F0009F03236038BD38B504460C20FEF7B8FDC3
:1017000023682278054602F00102C3F39D0023F00E
:10171000030313432B6063686B604000FEF7A8FD72
:10172000A8602268A168C2F39D02520024F0EAFA80
:10173000284638BD994210B511D313D800EB4100AB
:1017400002EB410209B9084610BD30F8023D32F8FB
:10175000024D1B1B002B02DB04D10139F2E74FF0D5
:10176000FF30F1E70120EFE710B5044638B180689B
:10177000FEF7A6FD2046BDE81040FEF7A1BD10BD56
:1017800038B505460C460221FFF7A0FF002C2B7848
:10179000B4BF0122002262F300032B70AB68B4BF18
:1017A00061422146023B012223F8021F090C104628
:1017B00002F10102F8D1686038BD0023C0E90033AE
:1017C0008360704728B103789B0702D48068FEF7D6
:1017D00077BD704738B505460C464968FFF776FF78
:1017E00022782B78A86862F300032B7063686B6023
:1017F0006268A1685200BDE8384024F083BA0A4606
:1018000029B90178426062F3000101707047FFF767
:10181000B7BF08B5FFF7D1FFBDE80840FFF7EFBF3E
:10182000920042F0020210B402600022C0E90121DD
:101830005DF8044B1946FFF7E2BFF8B59DF8187044
:1018400014461D4604210646FFF740FF22462B465C
:1018500027B1002D0CDA624265EB4503317867F35E
:10186000000131700021716052EA030102D1F8BD1C
:101870000027F3E7D6E901104C1C746020F8112012
:10188000120C42EA03421B0CEEE72DE9F3418DED09
:10189000010A019C0378E20F62F300030370C4F3B2
:1018A0000F4313F4FF43074608D13B786FF300035F
:1018B0003B7000237B6002B0BDE8F081B3F5FF4FC1
:1018C000F3D0C4F3C753A3F17F05002DEDDB05D1A1
:1018D000012102B0BDE8F041FFF752BFB3F16F083C
:1018E00048BFA3F16008C4F31604162D4FEA281868
:1018F00044F4000421DCC5F11705EC4000252E4618
:1019000041463846FFF7E2FEC7F8048026B1B868C2
:101910007200002124F03AFA45B1BB6804FA05F2DE
:1019200023F81620C5F11005EC400136B045C2D0B1
:10193000BB6823F81640240CF7E7B3F1960605F1CF
:10194000090548BFA3F1870605F00F053611D7E753
:101950002DE9F84304468F18C2F35B020D46511C73
:101960009846089EFFF7B2FE237868F300032370C1
:101970000023636029461FFA86FCB942084602D359
:10198000401BBDE8F8830278A2F13003092B01F176
:10199000010105D9A2F14103192B14D8A2F1370393
:1019A000B342EDD2D4E901E0F0468146B8F1000F30
:1019B00010D100EB4E0213B120F81E300232121A81
:1019C00052106260D9E7A2F16103192BD8D8A2F1B5
:1019D0005703E5E7B9F8002002FB0C3329F8023B76
:1019E00008F1FF381B0CE1E7F8B5044615461E4622
:1019F000C1B1531E1E444FF0FF37E9000F310909F2
:101A00002046FFF763FE237800216FF30003237065
:101A100061604DB9D4E9011000EB4101FFF7A7FD6A
:101A20006060F8BD0127E8E700230F2908DC327861
:101A30008A401343013D9BB201F108013E44F4D1B9
:101A40006268501C6060A068103920F81230E0E72E
:101A500038B50B780578044603F0010305F0010062
:101A6000181A08D1D1E90132D4E90110FFF762FE5A
:101A7000EB0748BF404238BD884210B5044601D04C
:101A8000FFF7A8FE23786FF30003237010BD884290
:101A900010B5044601D0FFF79DFE63683BB1237883
:101AA000C3F30002C2F1010262F30003237010BD10
:101AB00088421FB5044601D0FFF78CFE626862B908
:101AC00001212046FFF702FEA26801231380636014
:101AD000237843F00103237010E02378D9070FD552
:101AE000A1686FF3000323700123ADF80E3000935B
:101AF00008460DF10E03FFF78FFD606004B010BDC6
:101B0000511C2046FFF7E2FDD4E901210123ADF885
:101B10000E30009308460DF10E03FFF752FD606092
:101B2000D6E72DE9F8434B6805460E46144603B147
:101B30002AB931462846BDE8F843FFF74BBE02F10B
:101B40000F014FEA111803EB1111FFF7BFFDD6E9A2
:101B5000013108EB0307A86807F1004214F00F04F5
:101B600002F1FF3208BF102400EB420001EB430EEC
:101B7000814619464FF0000CC4F11004E9B96FF02A
:101B8000010253432CFA04F4C218C452C8F10103F1
:101B900002EB430308F1FF321846520024F0F6F836
:101BA000831E17B133F817209AB16F6032782B7803
:101BB00062F300032B70BDE8F8833EF8022D42EA81
:101BC0000C0C2CFA04F229F802294FEA0C4C0139CA
:101BD000D4E7013FE5E7F0B50E46496885B0054614
:101BE000144601B132B93146284605B0BDE8F0408F
:101BF000FFF7F0BDFFF76AFDD6E901212346A8688B
:101C0000FFF7C1FC686032782B7862F300032B7019
:101C1000DB072DD500237168ADF80E3022099942FB
:101C200001D093420FD1914222D9B36804F00F043E
:101C300033F81220012303FA04F4013C224213D0AA
:101C4000ADF80E3008E0B76837F8137057B10123CC
:101C50009142ADF80E30E8D8A968012350B90B8045
:101C60006B6005E00133DAE7BDF80E30002BF3D1ED
:101C700005B0F0BD009302460DF10E030846FFF7D4
:101C8000A0FC6860F4E773B50C4616460546D2E939
:101C90000132D1E90110FFF74DFD0028BEBF2346F8
:101CA00034461E462378327861685340DB071BD4E4
:101CB00001312846FFF70AFD73680093D4E901213A
:101CC000B368A868FFF77DFC686023786A68C3F38F
:101CD0000003002A0CBF002303F001032A7863F3FA
:101CE00000022A7002B070BD2846FFF7EFFC73684F
:101CF0000093D4E90121B368A868FFF78DFCE3E7FE
:101D0000F7B50D4616460446D2E90132D1E9011075
:101D1000FFF710FD0028BEBF2B4635461E462B7828
:101D20003278696883EA0203B4BF01270027DB0722
:101D300014D501312046FFF7C9FC73680093D5E93B
:101D40000121B368A068FFF73CFC606062682378FB
:101D500082B962F30003237003B0F0BD2046FFF7A1
:101D6000B5FC73680093D5E90121B368A068FFF75B
:101D700053FCEAE72A7802F00102002FE9D0C2F111
:101D80000102E6E72DE9F04F15464A686B689A4272
:101D90000E463EBF2E460B461D4633787168DB0764
:101DA00085B0044621D42B7813F001071DD1FFF72D
:101DB0008DFCD5E9011CA068B6683B4699420BD161
:101DC00000EB4101FFF7D3FB237860606FF3000362
:101DD000237005B0BDE8F08F36F813203CF813509F
:101DE0002A4020F813200133E8E701312046FFF7AD
:101DF0006DFC96F800A02B78D6F804C0A0688AEA9B
:101E00000307FF4307F0010E47F30007BFB2D5E910
:101E100001120AF001084AF3000A02971FFA8AF732
:101E200003F00109019743F30003B7689BB2A1EBEC
:101E30000C01A7F1020A0093674683460391BFB9DC
:101E400000EB4C01BEF1000F03D0012320F81C3041
:101E50000231FFF78CFB606033782A78C3F300030C
:101E6000C2F300021340227863F300022270B0E74D
:101E70003AF8021F019B5940039B013F8844D9193E
:101E8000B9429BBF32F8021B009B0099594089441C
:101E9000029B08EA090159401EFA81F12BF8021B46
:101EA0004FEA19494FEA18484FEA114EC7E72DE9A2
:101EB000F84F16464A6873689A420D463EBF35464B
:101EC0000B461E462B786968DB07044631D432780E
:101ED00012F001072DD1FFF7F9FBD6E9013EA96801
:101EE0006D68D4F808C0ED1A3A46934212D101EB5E
:101EF000430100220CEB4303954214D103EB45034D
:101F0000A3EB0C035B10636023786FF30003237073
:101F1000BDE8F88F31F812003EF8126030432CF81B
:101F200012000132E1E731F8120023F81200013209
:101F3000E2E701312046FFF7C9FB2A783378696868
:101F4000A068AD68D6E901E702F0010803F00109D5
:101F500042F3000243F30003A5F1020C92B29BB2DC
:101F60000E4682460125AEEB010E46B900EB41015B
:101F7000FFF7FDFA2378606043F00103C7E73CF800
:101F800002BF013E8BEA020BD8440EEB060BB345B1
:101F900096BF37F802BB9B468BEA030BD94448EA4D
:101FA000090B6FEA0B0B15FA8BF52AF8025B4FEA67
:101FB00019494FEA18482D0CD7E7F0B516464A687C
